{
  "_format": "hh-sol-artifact-1",
  "contractName": "Youmio",
  "sourceName": "contracts/Youmio.sol",
  "abi": [
    {
      "inputs": [],
      "stateMutability": "nonpayable",
      "type": "constructor"
    },
    {
      "anonymous": false,
      "inputs": [
        {
          "indexed": true,
          "internalType": "address",
          "name": "user",
          "type": "address"
        },
        {
          "indexed": false,
          "internalType": "string",
          "name": "meetingDetails",
          "type": "string"
        }
      ],
      "name": "MeetingCreated",
      "type": "event"
    },
    {
      "anonymous": false,
      "inputs": [
        {
          "indexed": true,
          "internalType": "address",
          "name": "user",
          "type": "address"
        },
        {
          "indexed": false,
          "internalType": "string",
          "name": "scheduleDetails",
          "type": "string"
        }
      ],
      "name": "MeetingScheduled",
      "type": "event"
    },
    {
      "anonymous": false,
      "inputs": [
        {
          "indexed": true,
          "internalType": "address",
          "name": "owner",
          "type": "address"
        },
        {
          "indexed": false,
          "internalType": "uint256",
          "name": "nftId",
          "type": "uint256"
        },
        {
          "indexed": false,
          "internalType": "string",
          "name": "imageUrl",
          "type": "string"
        },
        {
          "indexed": false,
          "internalType": "string",
          "name": "description",
          "type": "string"
        },
        {
          "indexed": false,
          "internalType": "uint256",
          "name": "price",
          "type": "uint256"
        }
      ],
      "name": "NftMinted",
      "type": "event"
    },
    {
      "anonymous": false,
      "inputs": [
        {
          "indexed": true,
          "internalType": "address",
          "name": "user",
          "type": "address"
        },
        {
          "indexed": false,
          "internalType": "uint256",
          "name": "reward",
          "type": "uint256"
        }
      ],
      "name": "SignedUp",
      "type": "event"
    },
    {
      "inputs": [],
      "name": "MEETING_SIGNATURE_FEE",
      "outputs": [
        {
          "internalType": "uint256",
          "name": "",
          "type": "uint256"
        }
      ],
      "stateMutability": "view",
      "type": "function"
    },
    {
      "inputs": [],
      "name": "SIGNUP_REWARD",
      "outputs": [
        {
          "internalType": "uint256",
          "name": "",
          "type": "uint256"
        }
      ],
      "stateMutability": "view",
      "type": "function"
    },
    {
      "inputs": [
        {
          "internalType": "address",
          "name": "",
          "type": "address"
        }
      ],
      "name": "balances",
      "outputs": [
        {
          "internalType": "uint256",
          "name": "",
          "type": "uint256"
        }
      ],
      "stateMutability": "view",
      "type": "function"
    },
    {
      "inputs": [
        {
          "internalType": "string",
          "name": "meetingDetails",
          "type": "string"
        }
      ],
      "name": "createMeeting",
      "outputs": [],
      "stateMutability": "nonpayable",
      "type": "function"
    },
    {
      "inputs": [],
      "name": "getAllNfts",
      "outputs": [
        {
          "components": [
            {
              "internalType": "uint256",
              "name": "id",
              "type": "uint256"
            },
            {
              "internalType": "string",
              "name": "imageUrl",
              "type": "string"
            },
            {
              "internalType": "string",
              "name": "description",
              "type": "string"
            },
            {
              "internalType": "uint256",
              "name": "price",
              "type": "uint256"
            },
            {
              "internalType": "address",
              "name": "owner",
              "type": "address"
            }
          ],
          "internalType": "struct Youmio.NFT[]",
          "name": "",
          "type": "tuple[]"
        }
      ],
      "stateMutability": "view",
      "type": "function"
    },
    {
      "inputs": [
        {
          "internalType": "uint256",
          "name": "nftId",
          "type": "uint256"
        }
      ],
      "name": "getNft",
      "outputs": [
        {
          "components": [
            {
              "internalType": "uint256",
              "name": "id",
              "type": "uint256"
            },
            {
              "internalType": "string",
              "name": "imageUrl",
              "type": "string"
            },
            {
              "internalType": "string",
              "name": "description",
              "type": "string"
            },
            {
              "internalType": "uint256",
              "name": "price",
              "type": "uint256"
            },
            {
              "internalType": "address",
              "name": "owner",
              "type": "address"
            }
          ],
          "internalType": "struct Youmio.NFT",
          "name": "",
          "type": "tuple"
        }
      ],
      "stateMutability": "view",
      "type": "function"
    },
    {
      "inputs": [
        {
          "internalType": "string",
          "name": "imageUrl",
          "type": "string"
        },
        {
          "internalType": "string",
          "name": "description",
          "type": "string"
        },
        {
          "internalType": "uint256",
          "name": "price",
          "type": "uint256"
        }
      ],
      "name": "mintNft",
      "outputs": [],
      "stateMutability": "nonpayable",
      "type": "function"
    },
    {
      "inputs": [],
      "name": "nextNftId",
      "outputs": [
        {
          "internalType": "uint256",
          "name": "",
          "type": "uint256"
        }
      ],
      "stateMutability": "view",
      "type": "function"
    },
    {
      "inputs": [
        {
          "internalType": "uint256",
          "name": "",
          "type": "uint256"
        }
      ],
      "name": "nfts",
      "outputs": [
        {
          "internalType": "uint256",
          "name": "id",
          "type": "uint256"
        },
        {
          "internalType": "string",
          "name": "imageUrl",
          "type": "string"
        },
        {
          "internalType": "string",
          "name": "description",
          "type": "string"
        },
        {
          "internalType": "uint256",
          "name": "price",
          "type": "uint256"
        },
        {
          "internalType": "address",
          "name": "owner",
          "type": "address"
        }
      ],
      "stateMutability": "view",
      "type": "function"
    },
    {
      "inputs": [
        {
          "internalType": "string",
          "name": "scheduleDetails",
          "type": "string"
        }
      ],
      "name": "scheduleMeeting",
      "outputs": [],
      "stateMutability": "nonpayable",
      "type": "function"
    },
    {
      "inputs": [],
      "name": "signUp",
      "outputs": [],
      "stateMutability": "nonpayable",
      "type": "function"
    }
  ],
  "bytecode": "0x6080604052600160025534801561001557600080fd5b50611997806100256000396000f3fe608060405234801561001057600080fd5b50600436106100a95760003560e01c80637b5d50b4116100715780637b5d50b41461017c57806393f1da4f14610198578063bf96ae63146101b6578063c032261b146101c0578063e957b18b146101de578063f368d657146101fa576100a9565b8063265aa621146100ae57806327e235e3146100e257806341f63bfd14610112578063732e8d73146101425780637912cb3f14610160575b600080fd5b6100c860048036038101906100c39190610dee565b610218565b6040516100d9959493929190610efb565b60405180910390f35b6100fc60048036038101906100f79190610f88565b61037e565b6040516101099190610fb5565b60405180910390f35b61012c60048036038101906101279190610dee565b610396565b60405161013991906110b5565b60405180910390f35b61014a6105aa565b6040516101579190611216565b60405180910390f35b61017a6004803603810190610175919061129d565b61080e565b005b610196600480360381019061019191906112ea565b61093a565b005b6101a0610b17565b6040516101ad9190610fb5565b60405180910390f35b6101be610b1d565b005b6101c8610c33565b6040516101d59190610fb5565b60405180910390f35b6101f860048036038101906101f3919061129d565b610c38565b005b610202610d64565b60405161020f9190610fb5565b60405180910390f35b6001602052806000526040600020600091509050806000015490806001018054610241906113ae565b80601f016020809104026020016040519081016040528092919081815260200182805461026d906113ae565b80156102ba5780601f1061028f576101008083540402835291602001916102ba565b820191906000526020600020905b81548152906001019060200180831161029d57829003601f168201915b5050505050908060020180546102cf906113ae565b80601f01602080910402602001604051908101604052809291908181526020018280546102fb906113ae565b80156103485780601f1061031d57610100808354040283529160200191610348565b820191906000526020600020905b81548152906001019060200180831161032b57829003601f168201915b5050505050908060030154908060040160009054906101000a900473ffffffffffffffffffffffffffffffffffffffff16905085565b60006020528060005260406000206000915090505481565b61039e610d69565b60006001600084815260200190815260200160002060000154036103f7576040517f08c379a00000000000000000000000000000000000000000000000000000000081526004016103ee9061142b565b60405180910390fd5b600160008381526020019081526020016000206040518060a00160405290816000820154815260200160018201805461042f906113ae565b80601f016020809104026020016040519081016040528092919081815260200182805461045b906113ae565b80156104a85780601f1061047d576101008083540402835291602001916104a8565b820191906000526020600020905b81548152906001019060200180831161048b57829003601f168201915b505050505081526020016002820180546104c1906113ae565b80601f01602080910402602001604051908101604052809291908181526020018280546104ed906113ae565b801561053a5780601f1061050f5761010080835404028352916020019161053a565b820191906000526020600020905b81548152906001019060200180831161051d57829003601f168201915b50505050508152602001600382015481526020016004820160009054906101000a900473ffffffffffffffffffffffffffffffffffffffff1673ffffffffffffffffffffffffffffffffffffffff1673ffffffffffffffffffffffffffffffffffffffff16815250509050919050565b6060600060016002546105bd919061147a565b67ffffffffffffffff8111156105d6576105d56114ae565b5b60405190808252806020026020018201604052801561060f57816020015b6105fc610d69565b8152602001906001900390816105f45790505b5090506000600190505b60025481101561080657600160008281526020019081526020016000206040518060a00160405290816000820154815260200160018201805461065b906113ae565b80601f0160208091040260200160405190810160405280929190818152602001828054610687906113ae565b80156106d45780601f106106a9576101008083540402835291602001916106d4565b820191906000526020600020905b8154815290600101906020018083116106b757829003601f168201915b505050505081526020016002820180546106ed906113ae565b80601f0160208091040260200160405190810160405280929190818152602001828054610719906113ae565b80156107665780601f1061073b57610100808354040283529160200191610766565b820191906000526020600020905b81548152906001019060200180831161074957829003601f168201915b50505050508152602001600382015481526020016004820160009054906101000a900473ffffffffffffffffffffffffffffffffffffffff1673ffffffffffffffffffffffffffffffffffffffff1673ffffffffffffffffffffffffffffffffffffffff1681525050826001836107dd919061147a565b815181106107ee576107ed6114dd565b5b60200260200101819052508080600101915050610619565b508091505090565b60016000803373ffffffffffffffffffffffffffffffffffffffff1673ffffffffffffffffffffffffffffffffffffffff168152602001908152602001600020541015610890576040517f08c379a000000000000000000000000000000000000000000000000000000000815260040161088790611558565b60405180910390fd5b60016000803373ffffffffffffffffffffffffffffffffffffffff1673ffffffffffffffffffffffffffffffffffffffff16815260200190815260200160002060008282546108df919061147a565b925050819055503373ffffffffffffffffffffffffffffffffffffffff167f0909bedab99142daa1a9477459d0a468af383053663e63662d46c993083f6f8a838360405161092e9291906115b4565b60405180910390a25050565b60006002600081548092919061094f906115d8565b9190505590506040518060a0016040528082815260200187878080601f016020809104026020016040519081016040528093929190818152602001838380828437600081840152601f19601f82011690508083019250505050505050815260200185858080601f016020809104026020016040519081016040528093929190818152602001838380828437600081840152601f19601f8201169050808301925050505050505081526020018381526020013373ffffffffffffffffffffffffffffffffffffffff1681525060016000838152602001908152602001600020600082015181600001556020820151816001019081610a4c91906117cc565b506040820151816002019081610a6291906117cc565b506060820151816003015560808201518160040160006101000a81548173ffffffffffffffffffffffffffffffffffffffff021916908373ffffffffffffffffffffffffffffffffffffffff1602179055509050503373ffffffffffffffffffffffffffffffffffffffff167f5f8b7929fb0cb89fede0cfae277770d12d15b9d8ba32cae1815f8e3b9a03b52f828888888888604051610b079695949392919061189e565b60405180910390a2505050505050565b60025481565b60008060003373ffffffffffffffffffffffffffffffffffffffff1673ffffffffffffffffffffffffffffffffffffffff1681526020019081526020016000205414610b9e576040517f08c379a0000000000000000000000000000000000000000000000000000000008152600401610b9590611941565b60405180910390fd5b600a6000803373ffffffffffffffffffffffffffffffffffffffff1673ffffffffffffffffffffffffffffffffffffffff168152602001908152602001600020819055503373ffffffffffffffffffffffffffffffffffffffff167f4098c370c038514e047bc0a8244bac331dcca27d502a31a6a2c894de0a0ef323600a604051610c299190610fb5565b60405180910390a2565b600181565b60016000803373ffffffffffffffffffffffffffffffffffffffff1673ffffffffffffffffffffffffffffffffffffffff168152602001908152602001600020541015610cba576040517f08c379a0000000000000000000000000000000000000000000000000000000008152600401610cb190611558565b60405180910390fd5b60016000803373ffffffffffffffffffffffffffffffffffffffff1673ffffffffffffffffffffffffffffffffffffffff1681526020019081526020016000206000828254610d09919061147a565b925050819055503373ffffffffffffffffffffffffffffffffffffffff167fc38b8a3c320c8884165fae182631ac076430b8d29f53f0ba904289f0ce215b7b8383604051610d589291906115b4565b60405180910390a25050565b600a81565b6040518060a0016040528060008152602001606081526020016060815260200160008152602001600073ffffffffffffffffffffffffffffffffffffffff1681525090565b600080fd5b600080fd5b6000819050919050565b610dcb81610db8565b8114610dd657600080fd5b50565b600081359050610de881610dc2565b92915050565b600060208284031215610e0457610e03610dae565b5b6000610e1284828501610dd9565b91505092915050565b610e2481610db8565b82525050565b600081519050919050565b600082825260208201905092915050565b60005b83811015610e64578082015181840152602081019050610e49565b60008484015250505050565b6000601f19601f8301169050919050565b6000610e8c82610e2a565b610e968185610e35565b9350610ea6818560208601610e46565b610eaf81610e70565b840191505092915050565b600073ffffffffffffffffffffffffffffffffffffffff82169050919050565b6000610ee582610eba565b9050919050565b610ef581610eda565b82525050565b600060a082019050610f106000830188610e1b565b8181036020830152610f228187610e81565b90508181036040830152610f368186610e81565b9050610f456060830185610e1b565b610f526080830184610eec565b9695505050505050565b610f6581610eda565b8114610f7057600080fd5b50565b600081359050610f8281610f5c565b92915050565b600060208284031215610f9e57610f9d610dae565b5b6000610fac84828501610f73565b91505092915050565b6000602082019050610fca6000830184610e1b565b92915050565b610fd981610db8565b82525050565b600082825260208201905092915050565b6000610ffb82610e2a565b6110058185610fdf565b9350611015818560208601610e46565b61101e81610e70565b840191505092915050565b61103281610eda565b82525050565b600060a0830160008301516110506000860182610fd0565b50602083015184820360208601526110688282610ff0565b915050604083015184820360408601526110828282610ff0565b91505060608301516110976060860182610fd0565b5060808301516110aa6080860182611029565b508091505092915050565b600060208201905081810360008301526110cf8184611038565b905092915050565b600081519050919050565b600082825260208201905092915050565b6000819050602082019050919050565b600060a08301600083015161111b6000860182610fd0565b50602083015184820360208601526111338282610ff0565b9150506040830151848203604086015261114d8282610ff0565b91505060608301516111626060860182610fd0565b5060808301516111756080860182611029565b508091505092915050565b600061118c8383611103565b905092915050565b6000602082019050919050565b60006111ac826110d7565b6111b681856110e2565b9350836020820285016111c8856110f3565b8060005b8581101561120457848403895281516111e58582611180565b94506111f083611194565b925060208a019950506001810190506111cc565b50829750879550505050505092915050565b6000602082019050818103600083015261123081846111a1565b905092915050565b600080fd5b600080fd5b600080fd5b60008083601f84011261125d5761125c611238565b5b8235905067ffffffffffffffff81111561127a5761127961123d565b5b60208301915083600182028301111561129657611295611242565b5b9250929050565b600080602083850312156112b4576112b3610dae565b5b600083013567ffffffffffffffff8111156112d2576112d1610db3565b5b6112de85828601611247565b92509250509250929050565b60008060008060006060868803121561130657611305610dae565b5b600086013567ffffffffffffffff81111561132457611323610db3565b5b61133088828901611247565b9550955050602086013567ffffffffffffffff81111561135357611352610db3565b5b61135f88828901611247565b9350935050604061137288828901610dd9565b9150509295509295909350565b7f4e487b7100000000000000000000000000000000000000000000000000000000600052602260045260246000fd5b600060028204905060018216806113c657607f821691505b6020821081036113d9576113d861137f565b5b50919050565b7f4e465420646f6573206e6f742065786973742e00000000000000000000000000600082015250565b6000611415601383610e35565b9150611420826113df565b602082019050919050565b6000602082019050818103600083015261144481611408565b9050919050565b7f4e487b7100000000000000000000000000000000000000000000000000000000600052601160045260246000fd5b600061148582610db8565b915061149083610db8565b92508282039050818111156114a8576114a761144b565b5b92915050565b7f4e487b7100000000000000000000000000000000000000000000000000000000600052604160045260246000fd5b7f4e487b7100000000000000000000000000000000000000000000000000000000600052603260045260246000fd5b7f496e73756666696369656e7420594d4920746f6b656e732e0000000000000000600082015250565b6000611542601883610e35565b915061154d8261150c565b602082019050919050565b6000602082019050818103600083015261157181611535565b9050919050565b82818337600083830152505050565b60006115938385610e35565b93506115a0838584611578565b6115a983610e70565b840190509392505050565b600060208201905081810360008301526115cf818486611587565b90509392505050565b60006115e382610db8565b91507fffffffffffffffffffffffffffffffffffffffffffffffffffffffffffffffff82036116155761161461144b565b5b600182019050919050565b60008190508160005260206000209050919050565b60006020601f8301049050919050565b600082821b905092915050565b6000600883026116827fffffffffffffffffffffffffffffffffffffffffffffffffffffffffffffffff82611645565b61168c8683611645565b95508019841693508086168417925050509392505050565b6000819050919050565b60006116c96116c46116bf84610db8565b6116a4565b610db8565b9050919050565b6000819050919050565b6116e3836116ae565b6116f76116ef826116d0565b848454611652565b825550505050565b600090565b61170c6116ff565b6117178184846116da565b505050565b5b8181101561173b57611730600082611704565b60018101905061171d565b5050565b601f8211156117805761175181611620565b61175a84611635565b81016020851015611769578190505b61177d61177585611635565b83018261171c565b50505b505050565b600082821c905092915050565b60006117a360001984600802611785565b1980831691505092915050565b60006117bc8383611792565b9150826002028217905092915050565b6117d582610e2a565b67ffffffffffffffff8111156117ee576117ed6114ae565b5b6117f882546113ae565b61180382828561173f565b600060209050601f8311600181146118365760008415611824578287015190505b61182e85826117b0565b865550611896565b601f19841661184486611620565b60005b8281101561186c57848901518255600182019150602085019450602081019050611847565b868310156118895784890151611885601f891682611792565b8355505b6001600288020188555050505b505050505050565b60006080820190506118b36000830189610e1b565b81810360208301526118c6818789611587565b905081810360408301526118db818587611587565b90506118ea6060830184610e1b565b979650505050505050565b7f5573657220616c7265616479207369676e65642075702e000000000000000000600082015250565b600061192b601783610e35565b9150611936826118f5565b602082019050919050565b6000602082019050818103600083015261195a8161191e565b905091905056fea2646970667358221220a48a9ab5843ca0692ab75dc6638083c850e864c3feff706bc59d575a02d8be0e64736f6c63430008180033",
  "linkReferences": {},
  "deployedLinkReferences": {}
}