{
  "_format": "hh-sol-artifact-1",
  "contractName": "Youmio",
  "sourceName": "contracts/Youmio.sol",
  "abi": [
    {
      "inputs": [],
      "stateMutability": "nonpayable",
      "type": "constructor"
    },
    {
      "anonymous": false,
      "inputs": [
        {
          "indexed": true,
          "internalType": "address",
          "name": "user",
          "type": "address"
        },
        {
          "indexed": false,
          "internalType": "string",
          "name": "meetingDetails",
          "type": "string"
        }
      ],
      "name": "MeetingCreated",
      "type": "event"
    },
    {
      "anonymous": false,
      "inputs": [
        {
          "indexed": true,
          "internalType": "address",
          "name": "user",
          "type": "address"
        },
        {
          "indexed": false,
          "internalType": "string",
          "name": "scheduleDetails",
          "type": "string"
        }
      ],
      "name": "MeetingScheduled",
      "type": "event"
    },
    {
      "anonymous": false,
      "inputs": [
        {
          "indexed": true,
          "internalType": "address",
          "name": "owner",
          "type": "address"
        },
        {
          "indexed": false,
          "internalType": "uint256",
          "name": "nftId",
          "type": "uint256"
        },
        {
          "indexed": false,
          "internalType": "string",
          "name": "imageUrl",
          "type": "string"
        },
        {
          "indexed": false,
          "internalType": "string",
          "name": "description",
          "type": "string"
        },
        {
          "indexed": false,
          "internalType": "uint256",
          "name": "price",
          "type": "uint256"
        }
      ],
      "name": "NftMinted",
      "type": "event"
    },
    {
      "anonymous": false,
      "inputs": [
        {
          "indexed": true,
          "internalType": "address",
          "name": "user",
          "type": "address"
        },
        {
          "indexed": false,
          "internalType": "uint256",
          "name": "reward",
          "type": "uint256"
        }
      ],
      "name": "SignedUp",
      "type": "event"
    },
    {
      "inputs": [],
      "name": "SIGNUP_REWARD",
      "outputs": [
        {
          "internalType": "uint256",
          "name": "",
          "type": "uint256"
        }
      ],
      "stateMutability": "view",
      "type": "function"
    },
    {
      "inputs": [
        {
          "internalType": "address",
          "name": "",
          "type": "address"
        }
      ],
      "name": "balances",
      "outputs": [
        {
          "internalType": "uint256",
          "name": "",
          "type": "uint256"
        }
      ],
      "stateMutability": "view",
      "type": "function"
    },
    {
      "inputs": [
        {
          "internalType": "string",
          "name": "meetingDetails",
          "type": "string"
        }
      ],
      "name": "createMeeting",
      "outputs": [],
      "stateMutability": "nonpayable",
      "type": "function"
    },
    {
      "inputs": [],
      "name": "getAllNfts",
      "outputs": [
        {
          "components": [
            {
              "internalType": "uint256",
              "name": "id",
              "type": "uint256"
            },
            {
              "internalType": "string",
              "name": "imageUrl",
              "type": "string"
            },
            {
              "internalType": "string",
              "name": "description",
              "type": "string"
            },
            {
              "internalType": "uint256",
              "name": "price",
              "type": "uint256"
            },
            {
              "internalType": "address",
              "name": "owner",
              "type": "address"
            }
          ],
          "internalType": "struct Youmio.NFT[]",
          "name": "",
          "type": "tuple[]"
        }
      ],
      "stateMutability": "view",
      "type": "function"
    },
    {
      "inputs": [
        {
          "internalType": "uint256",
          "name": "nftId",
          "type": "uint256"
        }
      ],
      "name": "getNft",
      "outputs": [
        {
          "components": [
            {
              "internalType": "uint256",
              "name": "id",
              "type": "uint256"
            },
            {
              "internalType": "string",
              "name": "imageUrl",
              "type": "string"
            },
            {
              "internalType": "string",
              "name": "description",
              "type": "string"
            },
            {
              "internalType": "uint256",
              "name": "price",
              "type": "uint256"
            },
            {
              "internalType": "address",
              "name": "owner",
              "type": "address"
            }
          ],
          "internalType": "struct Youmio.NFT",
          "name": "",
          "type": "tuple"
        }
      ],
      "stateMutability": "view",
      "type": "function"
    },
    {
      "inputs": [
        {
          "internalType": "string",
          "name": "imageUrl",
          "type": "string"
        },
        {
          "internalType": "string",
          "name": "description",
          "type": "string"
        },
        {
          "internalType": "uint256",
          "name": "price",
          "type": "uint256"
        }
      ],
      "name": "mintNft",
      "outputs": [],
      "stateMutability": "nonpayable",
      "type": "function"
    },
    {
      "inputs": [],
      "name": "nextNftId",
      "outputs": [
        {
          "internalType": "uint256",
          "name": "",
          "type": "uint256"
        }
      ],
      "stateMutability": "view",
      "type": "function"
    },
    {
      "inputs": [
        {
          "internalType": "uint256",
          "name": "",
          "type": "uint256"
        }
      ],
      "name": "nfts",
      "outputs": [
        {
          "internalType": "uint256",
          "name": "id",
          "type": "uint256"
        },
        {
          "internalType": "string",
          "name": "imageUrl",
          "type": "string"
        },
        {
          "internalType": "string",
          "name": "description",
          "type": "string"
        },
        {
          "internalType": "uint256",
          "name": "price",
          "type": "uint256"
        },
        {
          "internalType": "address",
          "name": "owner",
          "type": "address"
        }
      ],
      "stateMutability": "view",
      "type": "function"
    },
    {
      "inputs": [
        {
          "internalType": "string",
          "name": "scheduleDetails",
          "type": "string"
        }
      ],
      "name": "scheduleMeeting",
      "outputs": [],
      "stateMutability": "nonpayable",
      "type": "function"
    },
    {
      "inputs": [],
      "name": "signUp",
      "outputs": [],
      "stateMutability": "nonpayable",
      "type": "function"
    }
  ],
  "bytecode": "0x6080604052600160025534801561001557600080fd5b5061174d806100256000396000f3fe608060405234801561001057600080fd5b506004361061009e5760003560e01c80637b5d50b4116100665780637b5d50b41461017157806393f1da4f1461018d578063bf96ae63146101ab578063e957b18b146101b5578063f368d657146101d15761009e565b8063265aa621146100a357806327e235e3146100d757806341f63bfd14610107578063732e8d73146101375780637912cb3f14610155575b600080fd5b6100bd60048036038101906100b89190610c10565b6101ef565b6040516100ce959493929190610d1d565b60405180910390f35b6100f160048036038101906100ec9190610daa565b610355565b6040516100fe9190610dd7565b60405180910390f35b610121600480360381019061011c9190610c10565b61036d565b60405161012e9190610ed7565b60405180910390f35b61013f610581565b60405161014c9190611038565b60405180910390f35b61016f600480360381019061016a91906110bf565b6107e5565b005b61018b6004803603810190610186919061110c565b610839565b005b610195610a16565b6040516101a29190610dd7565b60405180910390f35b6101b3610a1c565b005b6101cf60048036038101906101ca91906110bf565b610b32565b005b6101d9610b86565b6040516101e69190610dd7565b60405180910390f35b6001602052806000526040600020600091509050806000015490806001018054610218906111d0565b80601f0160208091040260200160405190810160405280929190818152602001828054610244906111d0565b80156102915780601f1061026657610100808354040283529160200191610291565b820191906000526020600020905b81548152906001019060200180831161027457829003601f168201915b5050505050908060020180546102a6906111d0565b80601f01602080910402602001604051908101604052809291908181526020018280546102d2906111d0565b801561031f5780601f106102f45761010080835404028352916020019161031f565b820191906000526020600020905b81548152906001019060200180831161030257829003601f168201915b5050505050908060030154908060040160009054906101000a900473ffffffffffffffffffffffffffffffffffffffff16905085565b60006020528060005260406000206000915090505481565b610375610b8b565b60006001600084815260200190815260200160002060000154036103ce576040517f08c379a00000000000000000000000000000000000000000000000000000000081526004016103c59061124d565b60405180910390fd5b600160008381526020019081526020016000206040518060a001604052908160008201548152602001600182018054610406906111d0565b80601f0160208091040260200160405190810160405280929190818152602001828054610432906111d0565b801561047f5780601f106104545761010080835404028352916020019161047f565b820191906000526020600020905b81548152906001019060200180831161046257829003601f168201915b50505050508152602001600282018054610498906111d0565b80601f01602080910402602001604051908101604052809291908181526020018280546104c4906111d0565b80156105115780601f106104e657610100808354040283529160200191610511565b820191906000526020600020905b8154815290600101906020018083116104f457829003601f168201915b50505050508152602001600382015481526020016004820160009054906101000a900473ffffffffffffffffffffffffffffffffffffffff1673ffffffffffffffffffffffffffffffffffffffff1673ffffffffffffffffffffffffffffffffffffffff16815250509050919050565b606060006001600254610594919061129c565b67ffffffffffffffff8111156105ad576105ac6112d0565b5b6040519080825280602002602001820160405280156105e657816020015b6105d3610b8b565b8152602001906001900390816105cb5790505b5090506000600190505b6002548110156107dd57600160008281526020019081526020016000206040518060a001604052908160008201548152602001600182018054610632906111d0565b80601f016020809104026020016040519081016040528092919081815260200182805461065e906111d0565b80156106ab5780601f10610680576101008083540402835291602001916106ab565b820191906000526020600020905b81548152906001019060200180831161068e57829003601f168201915b505050505081526020016002820180546106c4906111d0565b80601f01602080910402602001604051908101604052809291908181526020018280546106f0906111d0565b801561073d5780601f106107125761010080835404028352916020019161073d565b820191906000526020600020905b81548152906001019060200180831161072057829003601f168201915b50505050508152602001600382015481526020016004820160009054906101000a900473ffffffffffffffffffffffffffffffffffffffff1673ffffffffffffffffffffffffffffffffffffffff1673ffffffffffffffffffffffffffffffffffffffff1681525050826001836107b4919061129c565b815181106107c5576107c46112ff565b5b602002602001018190525080806001019150506105f0565b508091505090565b3373ffffffffffffffffffffffffffffffffffffffff167f0909bedab99142daa1a9477459d0a468af383053663e63662d46c993083f6f8a838360405161082d92919061136a565b60405180910390a25050565b60006002600081548092919061084e9061138e565b9190505590506040518060a0016040528082815260200187878080601f016020809104026020016040519081016040528093929190818152602001838380828437600081840152601f19601f82011690508083019250505050505050815260200185858080601f016020809104026020016040519081016040528093929190818152602001838380828437600081840152601f19601f8201169050808301925050505050505081526020018381526020013373ffffffffffffffffffffffffffffffffffffffff168152506001600083815260200190815260200160002060008201518160000155602082015181600101908161094b9190611582565b5060408201518160020190816109619190611582565b506060820151816003015560808201518160040160006101000a81548173ffffffffffffffffffffffffffffffffffffffff021916908373ffffffffffffffffffffffffffffffffffffffff1602179055509050503373ffffffffffffffffffffffffffffffffffffffff167f5f8b7929fb0cb89fede0cfae277770d12d15b9d8ba32cae1815f8e3b9a03b52f828888888888604051610a0696959493929190611654565b60405180910390a2505050505050565b60025481565b60008060003373ffffffffffffffffffffffffffffffffffffffff1673ffffffffffffffffffffffffffffffffffffffff1681526020019081526020016000205414610a9d576040517f08c379a0000000000000000000000000000000000000000000000000000000008152600401610a94906116f7565b60405180910390fd5b600a6000803373ffffffffffffffffffffffffffffffffffffffff1673ffffffffffffffffffffffffffffffffffffffff168152602001908152602001600020819055503373ffffffffffffffffffffffffffffffffffffffff167f4098c370c038514e047bc0a8244bac331dcca27d502a31a6a2c894de0a0ef323600a604051610b289190610dd7565b60405180910390a2565b3373ffffffffffffffffffffffffffffffffffffffff167fc38b8a3c320c8884165fae182631ac076430b8d29f53f0ba904289f0ce215b7b8383604051610b7a92919061136a565b60405180910390a25050565b600a81565b6040518060a0016040528060008152602001606081526020016060815260200160008152602001600073ffffffffffffffffffffffffffffffffffffffff1681525090565b600080fd5b600080fd5b6000819050919050565b610bed81610bda565b8114610bf857600080fd5b50565b600081359050610c0a81610be4565b92915050565b600060208284031215610c2657610c25610bd0565b5b6000610c3484828501610bfb565b91505092915050565b610c4681610bda565b82525050565b600081519050919050565b600082825260208201905092915050565b60005b83811015610c86578082015181840152602081019050610c6b565b60008484015250505050565b6000601f19601f8301169050919050565b6000610cae82610c4c565b610cb88185610c57565b9350610cc8818560208601610c68565b610cd181610c92565b840191505092915050565b600073ffffffffffffffffffffffffffffffffffffffff82169050919050565b6000610d0782610cdc565b9050919050565b610d1781610cfc565b82525050565b600060a082019050610d326000830188610c3d565b8181036020830152610d448187610ca3565b90508181036040830152610d588186610ca3565b9050610d676060830185610c3d565b610d746080830184610d0e565b9695505050505050565b610d8781610cfc565b8114610d9257600080fd5b50565b600081359050610da481610d7e565b92915050565b600060208284031215610dc057610dbf610bd0565b5b6000610dce84828501610d95565b91505092915050565b6000602082019050610dec6000830184610c3d565b92915050565b610dfb81610bda565b82525050565b600082825260208201905092915050565b6000610e1d82610c4c565b610e278185610e01565b9350610e37818560208601610c68565b610e4081610c92565b840191505092915050565b610e5481610cfc565b82525050565b600060a083016000830151610e726000860182610df2565b5060208301518482036020860152610e8a8282610e12565b91505060408301518482036040860152610ea48282610e12565b9150506060830151610eb96060860182610df2565b506080830151610ecc6080860182610e4b565b508091505092915050565b60006020820190508181036000830152610ef18184610e5a565b905092915050565b600081519050919050565b600082825260208201905092915050565b6000819050602082019050919050565b600060a083016000830151610f3d6000860182610df2565b5060208301518482036020860152610f558282610e12565b91505060408301518482036040860152610f6f8282610e12565b9150506060830151610f846060860182610df2565b506080830151610f976080860182610e4b565b508091505092915050565b6000610fae8383610f25565b905092915050565b6000602082019050919050565b6000610fce82610ef9565b610fd88185610f04565b935083602082028501610fea85610f15565b8060005b8581101561102657848403895281516110078582610fa2565b945061101283610fb6565b925060208a01995050600181019050610fee565b50829750879550505050505092915050565b600060208201905081810360008301526110528184610fc3565b905092915050565b600080fd5b600080fd5b600080fd5b60008083601f84011261107f5761107e61105a565b5b8235905067ffffffffffffffff81111561109c5761109b61105f565b5b6020830191508360018202830111156110b8576110b7611064565b5b9250929050565b600080602083850312156110d6576110d5610bd0565b5b600083013567ffffffffffffffff8111156110f4576110f3610bd5565b5b61110085828601611069565b92509250509250929050565b60008060008060006060868803121561112857611127610bd0565b5b600086013567ffffffffffffffff81111561114657611145610bd5565b5b61115288828901611069565b9550955050602086013567ffffffffffffffff81111561117557611174610bd5565b5b61118188828901611069565b9350935050604061119488828901610bfb565b9150509295509295909350565b7f4e487b7100000000000000000000000000000000000000000000000000000000600052602260045260246000fd5b600060028204905060018216806111e857607f821691505b6020821081036111fb576111fa6111a1565b5b50919050565b7f4e465420646f6573206e6f742065786973742e00000000000000000000000000600082015250565b6000611237601383610c57565b915061124282611201565b602082019050919050565b600060208201905081810360008301526112668161122a565b9050919050565b7f4e487b7100000000000000000000000000000000000000000000000000000000600052601160045260246000fd5b60006112a782610bda565b91506112b283610bda565b92508282039050818111156112ca576112c961126d565b5b92915050565b7f4e487b7100000000000000000000000000000000000000000000000000000000600052604160045260246000fd5b7f4e487b7100000000000000000000000000000000000000000000000000000000600052603260045260246000fd5b82818337600083830152505050565b60006113498385610c57565b935061135683858461132e565b61135f83610c92565b840190509392505050565b6000602082019050818103600083015261138581848661133d565b90509392505050565b600061139982610bda565b91507fffffffffffffffffffffffffffffffffffffffffffffffffffffffffffffffff82036113cb576113ca61126d565b5b600182019050919050565b60008190508160005260206000209050919050565b60006020601f8301049050919050565b600082821b905092915050565b6000600883026114387fffffffffffffffffffffffffffffffffffffffffffffffffffffffffffffffff826113fb565b61144286836113fb565b95508019841693508086168417925050509392505050565b6000819050919050565b600061147f61147a61147584610bda565b61145a565b610bda565b9050919050565b6000819050919050565b61149983611464565b6114ad6114a582611486565b848454611408565b825550505050565b600090565b6114c26114b5565b6114cd818484611490565b505050565b5b818110156114f1576114e66000826114ba565b6001810190506114d3565b5050565b601f82111561153657611507816113d6565b611510846113eb565b8101602085101561151f578190505b61153361152b856113eb565b8301826114d2565b50505b505050565b600082821c905092915050565b60006115596000198460080261153b565b1980831691505092915050565b60006115728383611548565b9150826002028217905092915050565b61158b82610c4c565b67ffffffffffffffff8111156115a4576115a36112d0565b5b6115ae82546111d0565b6115b98282856114f5565b600060209050601f8311600181146115ec57600084156115da578287015190505b6115e48582611566565b86555061164c565b601f1984166115fa866113d6565b60005b82811015611622578489015182556001820191506020850194506020810190506115fd565b8683101561163f578489015161163b601f891682611548565b8355505b6001600288020188555050505b505050505050565b60006080820190506116696000830189610c3d565b818103602083015261167c81878961133d565b9050818103604083015261169181858761133d565b90506116a06060830184610c3d565b979650505050505050565b7f5573657220616c7265616479207369676e65642075702e000000000000000000600082015250565b60006116e1601783610c57565b91506116ec826116ab565b602082019050919050565b60006020820190508181036000830152611710816116d4565b905091905056fea2646970667358221220c784b350d9f9c83b3de2e24f49cfdcb7a8f97e2da3c42f6536398d5a15827ade64736f6c63430008180033",
  "linkReferences": {},
  "deployedLinkReferences": {}
}